:0400000007EF00F016
:0A000800518243ED0FF041EF11F0BB
:100800000001000A006400E8031027256425643A0B
:10081000256425643A25642564202020202020209A
:100820002000484F52413A20256425643A2564252A
:10083000643A256425642000444154413A202564EB
:1008400025643A256425643A2564256400444553AB
:0D0850005045525441444F522E20200000CC
:10085E0083A013D0050E1A6E910E196ED00EE82ECF
:10086E00FED7192EFCD71A2EFAD73B4A3C2A000E79
:10087E00386E000E376E83B0FED73CBE0AD03C50A9
:10088E0004E1020E3B5CD8A004D0000E3C6E000EBC
:10089E003B6E83A288D1050E1A6E910E196ED00E84
:1008AE00E82EFED7192EFCD71A2EFAD73B503C1045
:1008BE00D8A4F4D037503810D8A418D020EE04F0B5
:1008CE001350D9261450DA22DECF19F0DDCF1AF0EC
:1008DE000A0E1926000E1A2220EE04F01350D92605
:1008EE001450DA2219C0DEFF1AC0DDFF37043810AB
:1008FE00D8A409D020EE04F01350D9261450DA22D1
:10090E00DE2A000EDD22020E37183810D8A414D0BD
:10091E0013C0D9FF14C0DAFFDECF19F0DDCF1AF005
:10092E000A0E1926000E1A2213C0D9FF14C0DAFFC0
:10093E0019C0DEFF1AC0DDFF030E37183810D8A419
:10094E0007D013C0D9FF14C0DAFFDE2A000EDD2255
:10095E00040E37183810D8A418D020EE02F0135019
:10096E00D9261450DA22DECF19F0DDCF1AF00A0E96
:10097E001926000E1A2220EE02F01350D92614501A
:10098E00DA2219C0DEFF1AC0DDFF050E3718381047
:10099E00D8A409D020EE02F01350D9261450DA2232
:1009AE00DE2A000EDD22060E37183810D8A414D019
:1009BE0017C0D9FF18C0DAFFDECF19F0DDCF1AF05D
:1009CE000A0E1926000E1A2217C0D9FF18C0DAFF18
:1009DE0019C0DEFF1AC0DDFF070E37183810D8A475
:1009EE0007D017C0D9FF18C0DAFFDE2A000EDD22AD
:1009FE00080E37183810D8A418D020EE02F0175071
:100A0E00D9261850DA22DECF19F0DDCF1AF00A0EF1
:100A1E001926000E1A2220EE02F01750D926185071
:100A2E00DA2219C0DEFF1AC0DDFF090E37183810A2
:100A3E00D8A409D020EE02F01750D9261850DA2289
:100A4E00DE2A000EDD220A0E37183810D8A418D070
:100A5E0020EE04F01750D9261850DA22DECF19F006
:100A6E00DDCF1AF00A0E1926000E1A2220EE04F01F
:100A7E001750D9261850DA2219C0DEFF1AC0DDFF32
:100A8E000B0E37183810D8A409D020EE04F01750EA
:100A9E00D9261850DA22DE2A000EDD223B043C1045
:100AAE00D8A47FD037503810D8A418D020EE04F038
:100ABE001550D9261650DA22DECF19F0DDCF1AF0F6
:100ACE000A0E1926000E1A2220EE04F01550D92611
:100ADE001650DA2219C0DEFF1AC0DDFF37043810B7
:100AEE00D8A409D020EE04F01550D9261650DA22DB
:100AFE00DE2A000EDD22020E37183810D8A414D0CC
:100B0E0015C0D9FF16C0DAFFDECF19F0DDCF1AF00F
:100B1E000A0E1926000E1A2215C0D9FF16C0DAFFCA
:100B2E0019C0DEFF1AC0DDFF030E37183810D8A427
:100B3E0007D015C0D9FF16C0DAFFDE2A000EDD225F
:100B4E00040E37183810D8A418D020EE02F0155025
:100B5E00D9261650DA22DECF19F0DDCF1AF00A0EA2
:100B6E001926000E1A2220EE02F01550D926165024
:100B7E00DA2219C0DEFF1AC0DDFF050E3718381055
:100B8E00D8A409D020EE02F01550D9261650DA223C
:100B9E00DE2A000EDD2215C00FF016C010F00EEC8E
:100BAE000EF083B2FED783A4ACD1050E1A6E910E51
:100BBE00196ED00EE82EFED7192EFCD71A2EFAD7A4
:100BCE003B503C10D8A40CD137503810D8A41CD0B0
:100BDE00F60E196EFF0E1A6E20EE04F01350D92683
:100BEE001450DA22DECF1BF0DDCF1CF019501B267D
:100BFE001A501C2220EE04F01350D9261450DA227B
:100C0E001BC0DEFF1CC0DDFF37043810D8A409D08E
:100C1E0020EE04F01350D9261450DA22DE06000E10
:100C2E00DD5A020E37183810D8A418D0F60E196EE9
:100C3E00FF0E1A6E13C0D9FF14C0DAFFDECF1BF001
:100C4E00DDCF1CF019501B261A501C2213C0D9FFE1
:100C5E0014C0DAFF1BC0DEFF1CC0DDFF030E371809
:100C6E003810D8A407D013C0D9FF14C0DAFFDE069F
:100C7E00000EDD5A040E37183810D8A41CD0F60E0C
:100C8E00196EFF0E1A6E20EE02F01350D926145074
:100C9E00DA22DECF1BF0DDCF1CF019501B261A50C6
:100CAE001C2220EE02F01350D9261450DA221BC05B
:100CBE00DEFF1CC0DDFF050E37183810D8A409D092
:100CCE0020EE02F01350D9261450DA22DE06000E62
:100CDE00DD5A060E37183810D8A418D0F60E196E35
:100CEE00FF0E1A6E17C0D9FF18C0DAFFDECF1BF049
:100CFE00DDCF1CF019501B261A501C2217C0D9FF2D
:100D0E0018C0DAFF1BC0DEFF1CC0DDFF070E371850
:100D1E003810D8A407D017C0D9FF18C0DAFFDE06E6
:100D2E00000EDD5A080E37183810D8A41CD0F60E57
:100D3E00196EFF0E1A6E20EE02F01750D9261850BB
:100D4E00DA22DECF1BF0DDCF1CF019501B261A5015
:100D5E001C2220EE02F01750D9261850DA221BC0A2
:100D6E00DEFF1CC0DDFF090E37183810D8A409D0DD
:100D7E0020EE02F01750D9261850DA22DE06000EA9
:100D8E00DD5A0A0E37183810D8A41CD0F60E196E7C
:100D9E00FF0E1A6E20EE04F01750D9261850DA22E4
:100DAE00DECF1BF0DDCF1CF019501B261A501C2273
:100DBE0020EE04F01750D9261850DA221BC0DEFFA1
:100DCE001CC0DDFF0B0E37183810D8A409D020EE4A
:100DDE0004F01750D9261850DA22DE06000EDD5A1E
:100DEE003B043C10D8A48BD037503810D8A41CD05C
:100DFE00F60E196EFF0E1A6E20EE04F01550D9265F
:100E0E001650DA22DECF1BF0DDCF1CF019501B2658
:100E1E001A501C2220EE04F01550D9261650DA2254
:100E2E001BC0DEFF1CC0DDFF37043810D8A409D06C
:100E3E0020EE04F01550D9261650DA22DE06000EEA
:100E4E00DD5A020E37183810D8A418D0F60E196EC7
:100E5E00FF0E1A6E15C0D9FF16C0DAFFDECF1BF0DB
:100E6E00DDCF1CF019501B261A501C2215C0D9FFBD
:100E7E0016C0DAFF1BC0DEFF1CC0DDFF030E3718E5
:100E8E003810D8A407D015C0D9FF16C0DAFFDE0679
:100E9E00000EDD5A040E37183810D8A41CD0F60EEA
:100EAE00196EFF0E1A6E20EE02F01550D92616504E
:100EBE00DA22DECF1BF0DDCF1CF019501B261A50A4
:100ECE001C2220EE02F01550D9261650DA221BC035
:100EDE00DEFF1CC0DDFF050E37183810D8A409D070
:100EEE0020EE02F01550D9261650DA22DE06000E3C
:100EFE00DD5A15C00FF016C010F00EEC0EF083B4D4
:100F0E00FED783A61200050E1A6E910E196ED00E24
:100F1E00E82EFED7192EFCD71A2EFAD7374A382AC2
:100F2E0038BE0ED0385004E10C0E375CD8A008D075
:100F3E003B503C10D8A404D0000E386E000E376E15
:100F4E0038BE0ED0385004E1060E375CD8A008D05B
:100F5E003B043C10D8A404D0000E386E000E376E41
:100F6E0083A61200FDD73B503C10D8A42AD2000114
:100F7E0020EE04F06051D9266151DA22DECF15F051
:100F8E00DDCF16F0000E186E0A0E176EE8EC0FF09D
:100F9E0015C033F016C034F0000E126E0A0E116E2C
:100FAE00000120EE04F06051D9266151DA22DECF25
:100FBE000FF0DDCF10F02AEC10F00FC015F010C0BE
:100FCE0016F0000E186E0A0E176EE8EC0FF0151ED6
:100FDE00161E154A162A155033240001826F16501C
:100FEE0034200001836F000120EE04F06051D926F9
:100FFE006151DA22DECF0FF0DDCF10F0000E126E4F
:10100E000A0E116E2AEC10F00FC084F010C085F09D
:10101E0060C0D9FF61C0DAFFDECF15F0DDCF16F06C
:10102E00000E186E0A0E176EE8EC0FF015C033F0B6
:10103E0016C034F0000E126E0A0E116E60C0D9FF8B
:10104E0061C0DAFFDECF0FF0DDCF10F02AEC10F02A
:10105E000FC015F010C016F0000E186E0A0E176EA7
:10106E00E8EC0FF0151E161E154A162A15503324DD
:10107E000001866F165034200001876F60C0D9FFC3
:10108E0061C0DAFFDECF0FF0DDCF10F0000E126E72
:10109E000A0E116E2AEC10F00FC088F010C089F005
:1010AE00000120EE02F06051D9266151DA22DECF26
:1010BE0015F0DDCF16F0000E186E0A0E176EE8EC66
:1010CE000FF015C033F016C034F0000E126E0A0E7B
:1010DE00116E000120EE02F06051D9266151DA2224
:1010EE00DECF0FF0DDCF10F02AEC10F00FC015F0B0
:1010FE0010C016F0000E186E0A0E176EE8EC0FF008
:10110E00151E161E154A162A1550332400018A6F15
:10111E001650342000018B6F000120EE02F060515A
:10112E00D9266151DA22DECF0FF0DDCF10F0000E9E
:10113E00126E0A0E116E2AEC10F00FC08CF010C059
:10114E008DF0660E1B6E000E1C6E220E1D6E080EAE
:10115E001E6E82C01FF083C020F084C021F085C0B7
:10116E0022F086C023F087C024F088C025F089C005
:10117E0026F08AC027F08BC028F08CC029F08DC0D5
:10118E002AF06AEC0DF0000EB9EC10F0660E116E3E
:10119E00000E126E62EC10F064C0D9FF65C0DAFF6B
:1011AE00DECF15F0DDCF16F0000E186E0A0E176E9C
:1011BE00E8EC0FF015C033F016C034F0000E126ECE
:1011CE000A0E116E64C0D9FF65C0DAFFDECF0FF0D4
:1011DE00DDCF10F02AEC10F00FC015F010C016F095
:1011EE00000E186E0A0E176EE8EC0FF0151E161E86
:1011FE00154A162A155033240001766F16503420E6
:10120E000001776F64C0D9FF65C0DAFFDECF0FF043
:10121E00DDCF10F0000E126E0A0E116E2AEC10F0D9
:10122E000FC078F010C079F0000120EE02F064518A
:10123E00D9266551DA22DECF15F0DDCF16F0000E7D
:10124E00186E0A0E176EE8EC0FF015C033F016C0CC
:10125E0034F0000E126E0A0E116E000120EE02F036
:10126E006451D9266551DA22DECF0FF0DDCF10F0B2
:10127E002AEC10F00FC015F010C016F0000E186E0C
:10128E000A0E176EE8EC0FF0151E161E154A162ADA
:10129E001550332400017A6F1650342000017B6FF5
:1012AE00000120EE02F06451D9266551DA22DECF1C
:1012BE000FF0DDCF10F0000E126E0A0E116E2AEC3A
:1012CE0010F00FC07CF010C07DF0000120EE04F095
:1012DE006451D9266551DA22DECF15F0DDCF16F036
:1012EE00000E186E0A0E176EE8EC0FF015C033F0F4
:1012FE0016C034F0000E126E0A0E116E000120EEB2
:10130E0004F06451D9266551DA22DECF0FF0DDCF1D
:10131E0010F02AEC10F00FC015F010C016F0000EF1
:10132E00186E0A0E176EE8EC0FF0151E161E154AF3
:10133E00162A1550332400017E6F165034200001FA
:10134E007F6F000120EE04F06451D9266551DA2238
:10135E00DECF0FF0DDCF10F0000E126E0A0E116E02
:10136E002AEC10F00FC080F010C081F0660E1B6EDC
:10137E00000E1C6E380E1D6E080E1E6E76C01FF00F
:10138E0077C020F078C021F079C022F07AC023F027
:10139E007BC024F07CC025F07DC026F07EC027F0F7
:1013AE007FC028F080C029F081C02AF06AEC0DF0D1
:1013BE00400EB9EC10F0660E116E000E126E62EC5D
:1013CE0010F03B043C10D8A41200000120EE04F0F3
:1013DE006251D9266351DA22DECF15F0DDCF16F039
:1013EE00000E186E0A0E176EE8EC0FF015C033F0F3
:1013FE0016C034F0000E126E0A0E116E000120EEB1
:10140E0004F06251D9266351DA22DECF0FF0DDCF20
:10141E0010F02AEC10F00FC015F010C016F0000EF0
:10142E00186E0A0E176EE8EC0FF0151E161E154AF2
:10143E00162A155033240001826F165034200001F5
:10144E00836F000120EE04F06251D9266351DA2237
:10145E00DECF0FF0DDCF10F0000E126E0A0E116E01
:10146E002AEC10F00FC084F010C085F062C0D9FFD6
:10147E0063C0DAFFDECF15F0DDCF16F0000E186E6A
:10148E000A0E176EE8EC0FF015C033F016C034F0EC
:10149E00000E126E0A0E116E62C0D9FF63C0DAFF23
:1014AE00DECF0FF0DDCF10F02AEC10F00FC015F0EC
:1014BE0010C016F0000E186E0A0E176EE8EC0FF044
:1014CE00151E161E154A162A155033240001866F56
:1014DE00165034200001876F62C0D9FF63C0DAFF57
:1014EE00DECF0FF0DDCF10F0000E126E0A0E116E71
:1014FE002AEC10F00FC088F010C089F0000120EE29
:10150E0002F06251D9266351DA22DECF15F0DDCF1B
:10151E0016F0000E186E0A0E176EE8EC0FF015C0DE
:10152E0033F016C034F0000E126E0A0E116E00016A
:10153E0020EE02F06251D9266351DA22DECF0FF08F
:10154E00DDCF10F02AEC10F00FC015F010C016F021
:10155E00000E186E0A0E176EE8EC0FF0151E161E12
:10156E00154A162A1550332400018A6F165034205E
:10157E0000018B6F000120EE02F06251D9266351FB
:10158E00DA22DECF0FF0DDCF10F0000E126E0A0E53
:10159E00116E2AEC10F00FC08CF010C08DF0660E9C
:1015AE001B6E000E1C6E0B0E1D6E080E1E6E82C084
:1015BE001FF083C020F084C021F085C022F086C0C9
:1015CE0023F087C024F088C025F089C026F08AC099
:1015DE0027F08BC028F08CC029F08DC02AF06AEC61
:1015EE000DF0000EB9EC10F04D0E116E080E126ECD
:1015FE0062EC10F0400EB9EC10F0660E116E000E9B
:10160E00126E62EC10F0120020EE02F00F50D9268E
:10161E001050DA22DE2A000EDD2220EE02F00F50EC
:10162E00D9261050DA22010EDBBE18D0010EDB5087
:10163E0004E13C0EDE5CD8A011D00FC0D9FF10C063
:10164E00DAFFDE2A000EDD2220EE02F00F50D92640
:10165E001050DA22000EDE6E000EDD6E20EE02F06D
:10166E000F50D9261050DA22010EDBAE11D020EE2B
:10167E0002F00F50D9261050DA223B0EDE6E000E0D
:10168E00DD6E0FC0D9FF10C0DAFFDE06000EDD5A88
:10169E000FC0D9FF10C0DAFF010EDBBE18D0010E4D
:1016AE00DB5004E13C0EDE5CD8A011D020EE04F03D
:1016BE000F50D9261050DA22DE2A000EDD220FC07E
:1016CE00D9FF10C0DAFF000EDE6E000EDD6E0FC009
:1016DE00D9FF10C0DAFF010EDBAE11D00FC0D9FF5B
:1016EE0010C0DAFF3B0EDE6E000EDD6E20EE04F053
:1016FE000F50D9261050DA22DE06000EDD5A20EEEB
:10170E0004F00F50D9261050DA22010EDBBE18D08D
:10171E00010EDB5004E1180EDE5CD8A011D011C012
:10172E00D9FF12C0DAFFDE2A000EDD2220EE04F011
:10173E000F50D9261050DA22000EDE6E000EDD6E2E
:10174E0020EE04F00F50D9261050DA22010EDBAE37
:10175E0011D020EE04F00F50D9261050DA22170EB9
:10176E00DE6E000EDD6E11C0D9FF12C0DAFFDE068E
:10177E00000EDD5A11C0D9FF12C0DAFF10EE02F0D2
:10178E001150E1261250E222E6CF15F0E5CF16F009
:10179E00D89015361636900E1524E16E000E1620D2
:1017AE00E26EDE50E65CE650800A196EDE50800A6C
:1017BE001958D8B011D020EE02F01150D92612507F
:1017CE00DA22DE2A000EDD2211C0D9FF12C0DAFFA6
:1017DE00010EDE6E000EDD6E11C0D9FF12C0DAFFF3
:1017EE00010EDBBE06D0010EDB5027E1DE04D8B0C1
:1017FE0024D020EE02F01150D9261250DA22DE0645
:10180E00000EDD5A20EE02F01150D9261250DA22C7
:10181E00DECF13F0DDCF14F0D89013361436900EC1
:10182E001324D96E000E1420DA6E11C0E1FF12C01F
:10183E00E2FFDECFE6FFDDCFE5FF20EE02F0115036
:10184E00D9261250DA22010EDBBE1AD0010EDB5061
:10185E0004E10D0EDE5CD8A013D020EE04F0115082
:10186E00D9261250DA22DE2A000EDD2220EE02F0F8
:10187E001150D9261250DA22010EDE6E000EDD6EE8
:10188E0020EE02F01150D9261250DA22010EDBBEE4
:10189E0006D0010EDB5031E1DE04D8B02ED020EEA2
:1018AE0002F01150D9261250DA220C0EDE6E000E06
:1018BE00DD6E20EE02F01150D9261250DA22DECF64
:1018CE0013F0DDCF14F0D89013361436900E132487
:1018DE00D96E000E1420DA6E11C0E1FF12C0E2FFC5
:1018EE00DECFE6FFDDCFE5FF20EE04F01150D92666
:1018FE001250DA22DE06000EDD5A20EE04F01150F0
:10190E00D9261250DA22010EDBBE11D0010EDB50A9
:10191E0004E1640EDE5CD8A00AD020EE04F0115073
:10192E00D9261250DA22000EDE6E000EDD6E20EE8B
:10193E0004F01150D9261250DA22010EDBAE12003D
:10194E0020EE04F01150D9261250DA22630EDE6E0C
:10195E00000EDD6E1200000E4E6E000E4D6E000E6D
:10196E004C6E000E4B6E000E506E000E4F6E000E43
:10197E00486E050E476E000E466E000E456E000E4A
:10198E004A6E000E496E000E406E010E3F6E000E46
:10199E00426E010E416E000E446E130E436ED58ED6
:1019AE00F28AF294D59CD596D580D592D584D59AC7
:1019BE00090ED76EE70ED66ED58EF28EF28C7BECBC
:1019CE0011F092909292000E936E9580958295846E
:1019DE0095864B0E136E000E146E450E156E000E90
:1019EE00166E3F0E176E000E186E2FEC04F03E04AE
:1019FE00D8A43BD04B0E0F6E000E106E3F0E116E24
:101A0E00000E126E0BEC0BF00C0E03EC11F04B0EE5
:101A1E000001606F000E0001616F450E0001626FE4
:101A2E00000E0001636F3F0E0001646F000E000197
:101A3E00656FBAEC07F00F0E03EC11F0AEEC0EF082
:101A4E008080020E00018F6FC70E00018E6F880E10
:101A5E00E82EFED78E2FFCD78F2FFAD700F080906E
:101A6E003D04D8A402D0354A362A47504D1814E109
:101A7E0048504E18D8A410D045504B180DE1465082
:101A8E004C18D8A409D049504F1806E14A505018A6
:101A9E00D8A402D0010E3D6E3D04D8A408D036BEA7
:101AAE0005D0365004E10A0E355CD8A080820A0EAD
:101ABE0035183610D8A48DD7000E366E000E356E42
:101ACE00000E3D6E86D71F0E2C6E000E2D6E8CD026
:101ADE00250E3218D8B409D01BC0D9FF1CC0DAFFAE
:101AEE0032C0DFFF1B4A1C2A7FD0000E2E6E1DC097
:101AFE00F6FF1EC0F7FF1D4A1E2A0800F5CF32F072
:101B0E003250000AD8B47CD0640AD8B403D00D0A7F
:101B1E00D8A46AD02CC0D9FF2DC0DAFFDECF30F0AA
:101B2E00DDCF31F0020E2C26000E2D2231AE06D066
:101B3E00030E2E12306C311ED8B0312A010E326EC9
:101B4E00050E3218D8B412D03250020D010EF32405
:101B5E00F66E080EF420F76E0900F550305C0900A1
:101B6E00F5503158D8A002D0322AEAD72EC02BF029
:101B7E00030E2B16D8B408D01BC0D9FF1CC0DAFF39
:101B8E002D0EDF6E1B4A1C2A32C02FF029D02F508B
:101B9E00020D010EF324F66E080EF420F76E090006
:101BAE00F5CF11F00A00F5CF12F030C00FF031C0B2
:101BBE0010F090EC10F00FC016F010C017F0000EE1
:101BCE00196E0A0E186EE2EC10F01650300F326ECF
:101BDE001BC0D9FF1CC0DAFF32C0DFFF1B4A1C2A14
:101BEE002F062F28D8A4D3D71DC0F6FF1EC0F7FF8F
:101BFE001D4A1E2A0800F5CF32F03250D8A468D7FD
:101C0E001BC0D9FF1CC0DAFF000EDF6E120020EEE3
:101C1E0002F00F50D9261050DA22010EDBBE18D07A
:101C2E00010EDB5004E13C0EDE5CD8A011D00FC0DB
:101C3E00D9FF10C0DAFFDE2A000EDD2220EE02F000
:101C4E000F50D9261050DA22000EDE6E000EDD6E19
:101C5E0020EE02F00F50D9261050DA22010EDBAE24
:101C6E0011D020EE02F00F50D9261050DA223B0E82
:101C7E00DE6E000EDD6E0FC0D9FF10C0DAFFDE067D
:101C8E00000EDD5A0FC0D9FF10C0DAFF010EDBBE09
:101C9E0018D0010EDB5004E13C0EDE5CD8A011D052
:101CAE0020EE04F00F50D9261050DA22DE2A000E54
:101CBE00DD220FC0D9FF10C0DAFF000EDE6E000E5F
:101CCE00DD6E0FC0D9FF10C0DAFF010EDBAE11D0F2
:101CDE000FC0D9FF10C0DAFF3B0EDE6E000EDD6EB8
:101CEE0020EE04F00F50D9261050DA22DE06000E38
:101CFE00DD5A20EE04F00F50D9261050DA22010ED4
:101D0E00DBBE11D0010EDB5004E1180EDE5CD8A054
:101D1E000AD020EE04F00F50D9261050DA22000E11
:101D2E00DE6E000EDD6E20EE04F00F50D926105040
:101D3E00DA22010EDBAE120020EE04F00F50D9268F
:101D4E001050DA22170EDE6E000EDD6E12003B50C2
:101D5E003C10D8A45ED037503810D8A403D0060E4D
:101D6E00B9EC10F037043810D8A403D0070EB9EC34
:101D7E0010F0020E37183810D8A403D0090EB9ECA3
:101D8E0010F0030E37183810D8A403D00A0EB9EC91
:101D9E0010F0040E37183810D8A403D00C0EB9EC7E
:101DAE0010F0050E37183810D8A403D00D0EB9EC6C
:101DBE0010F0060E37183810D8A403D0460EB9EC22
:101DCE0010F0070E37183810D8A403D0470EB9EC10
:101DDE0010F0080E37183810D8A403D0490EB9ECFD
:101DEE0010F0090E37183810D8A403D04A0EB9ECEB
:101DFE0010F00A0E37183810D8A403D04C0EB9ECD8
:101E0E0010F00B0E37183810D8A403D04D0EB9ECC5
:101E1E0010F03B043C10D8A4120037503810D8A450
:101E2E0003D0400EB9EC10F037043810D8A403D00C
:101E3E00410EB9EC10F0020E37183810D8A403D0AA
:101E4E00430EB9EC10F0030E37183810D8A403D097
:101E5E00440EB9EC10F0040E37183810D8A403D085
:101E6E00460EB9EC10F0050E37183810D8A4120033
:101E7E00470EB9EC10F012000600FACF01F0FBCFBE
:101E8E0002F0E9CF03F0EACF04F0E1CF05F0E2CFA4
:101E9E0006F0D9CF07F0DACF08F0F3CF09F0F4CF80
:101EAE000AF0F6CF0BF0F7CF0CF0F8CF0DF0F5CF20
:101EBE000EF0F2A409D0090ED76EE70ED66EF2948C
:101ECE00394A3A2A000E3E6E3ABE0BD03A5003E122
:101EDE003904D8A006D0010E3E6E000E3A6E000EEA
:101EEE00396E0EC0F5FF0DC0F8FF0CC0F7FF0BC02A
:101EFE00F6FF0AC0F4FF09C0F3FF08C0DAFF07C0FF
:101F0E00D9FF06C0E2FF05C0E1FF04C0EAFF03C02F
:101F1E00E9FF02C0FBFF01C0FAFF51921100146EDF
:101F2E00F00E8116F00E9316939C939A93988A9CBA
:101F3E008A9A8A98B2EC11F0300E03EC11F0050E6D
:101F4E0097EC11F0300E03EC11F0010E97EC11F03E
:101F5E00320E03EC11F05EEC11F00009D8A4FBD7A1
:101F6E005EEC11F00009D8A4FBD7145003EC11F06D
:101F7E005EEC11F00009D8A4FBD7080E03EC11F0AB
:101F8E005EEC11F00009D8A4FBD70F0E03EC11F094
:101F9E005EEC11F00009D8A4FBD7010E03EC11F092
:101FAE005EEC11F00009D8A4FBD7040E03EC11F07F
:101FBE005EEC11F00009D8A4FBD7800EB9EC10F03E
:101FCE001200000E1A6E18AE06D0176C181ED8B07E
:101FDE00182A010E1A6E16AE06D0156C161ED8B043
:101FEE00162A010E1A1A000E1C6E000E1B6E1750CA
:101FFE001810D8B41CD0010E196E04D0D890173614
:10200E001836192A18AEFAD7D8901B361C36175028
:10201E00155C18501658D8A005D01750155E1850DC
:10202E00165A1B80D89018321732192EEDD71A5027
:10203E00D8B404D01B6C1C1ED8B01C2A1BC015F0C3
:10204E001CC016F01200000E146E10AE06D00F6CEF
:10205E00101ED8B0102A010E146E12AE04D0116CE0
:10206E00121ED8B0122A11501210D8B418D0010E68
:10207E00136E04D0D89011361236132A12AEFAD738
:10208E0011500F5C12501058D8A004D011500F5E92
:10209E001250105AD89012321132132EF1D714500A
:1020AE00D8B404D00F6C101ED8B0102A0FC00FF089
:1020BE0010C010F0120019D05EEC11F00009D8A477
:1020CE00FBD711C0F6FF12C0F7FFF86A070EF764D0
:1020DE0003D00800F55005D0F6CFE1FFF7CFE2FFB1
:1020EE00E75022EC11F0114A122A11C0F6FF12C06D
:1020FE00F7FFF86A070EF76403D00800F55005D015
:10210E00F6CFE1FFF7CFE2FFE7500009D8B4120097
:10211E00D3D7000E146E000E136E11501210D8B4D9
:10212E001CD0010E156E04D0D89011361236152A19
:10213E0012AEFAD7D8901336143611500F5C1250D7
:10214E001058D8A005D011500F5E1250105A13809F
:10215E00D89012321132152EEDD713C00FF014C0D5
:10216E0010F01200136EF00E9316F00E811613502F
:10217E00106E116A108E040E126E1134113210325E
:10218E00122EFBD710500F0B81128A9C8A9AB6EC36
:10219E0011F08A88B6EC11F08A98F00E8116135061
:1021AE000F0B8112B6EC11F08A88B6EC11F08A98FA
:1021BE000F0E9312120018501910D8B418D0010E29
:1021CE001A6E04D0D890183619361A2A19AEFAD7C4
:1021DE001850165C19501758D8A004D01850165E17
:1021EE001950175AD890193218321A2EF1D716C024
:1021FE0016F017C017F01200106EF00E9316F00EB8
:10220E00811610380F0B0F0B81128A9C8A9AB6EC2E
:10221E0011F08A88B6EC11F08A98F00E81161050E3
:10222E000F0B8112B6EC11F08A88B6EC11F08A9879
:10223E000F0E93121200106EF00E9316F00E811602
:10224E0010380F0B0F0B81128A8A8A9CB6EC11F094
:10225E008A88B6EC11F08A98F00E811610500F0B8A
:10226E008112B6EC11F08A88B6EC11F08A980F0E36
:10227E0093121200140EF66E230EF76E000EF86E09
:10228E0000EE90F010EE1AF00900F5CFEEFFE550DB
:10229E00E150FAE100EE35F01C0EEE6AE806FDE1C3
:1022AE0051905192000EF86E0001B2EF0CF08A8C34
:1022BE008A9AB6EC11F08A88B6EC11F081A60AD093
:1022CE008A98B6EC11F08A88B6EC11F08A988A9C3E
:1022DE00010E12008A98B6EC11F08A88B6EC11F055
:1022EE008A988A9C000E1200280E96EC0FF05EEC77
:1022FE0011F00009D8A4FBD7060E03EC11F00C0E5A
:10230E0003EC11F0120000001F001C001F001E0045
:10231E001F001E001F001F001E001F001E001F00BA
:10232E00106E0D0E0F6EFC0EE82EFED70F2EFCD784
:10233E00102EF7D712000F6EC80E00D0E82EFDD764
:10234E000F2EFAD712000F6E030EE82EFED700F0F6
:10235E000F2EFAD71200B40EA2EC11F01200780E66
:06236E00AAEC11F01200C0
:020000040020DA
:08000000FFFFFFFFFFFFFFFF00
:020000040030CA
:0E00000000051F1EFF8185FF0FC00FE00F409F
:00000001FF
