:020000040000FA
:0400000007EF00F016
:10000800048209ED00F040EF00F00600F2A407D0EA
:10001800090ED76EE70ED66EF294014A022A02BE86
:1000280017D0025004E10A0E015CD8A011D083A0B9
:1000380003D0036A032A01D0036A010E0326835002
:100048000318FE0B0318836E000E026E000E016E7D
:10005800049211009590D58EF28AF294D59CD5968B
:10006800D580D592D584D59A090ED76EE70ED66E6F
:10007800D58EF28EF28CFFD7026A016A0490049240
:0600880000012EEF00F064
:020000040020DA
:08000000FFFFFFFFFFFFFFFF00
:020000040030CA
:0E00000000051F1FFF8385FF0FC00FE00F409C
:00000001FF
