:020000040000FA
:0400000007EF00F016
:100008003B82D5ED00F032EF01F020EE02F01F50F8
:10001800D9262050DA22DE2A000EDD2220EE02F058
:100028001F50D9262050DA22010EDBBE18D0010E4F
:10003800DB5004E13C0EDE5CD8A011D01FC0D9FF14
:1000480020C0DAFFDE2A000EDD2220EE02F01F506B
:10005800D9262050DA22000EDE6E000EDD6E1FC09B
:10006800D9FF20C0DAFF010EDBBE18D0010EDB502D
:1000780004E13C0EDE5CD8A011D020EE04F01F5045
:10008800D9262050DA22DE2A000EDD221FC0D9FF31
:1000980020C0DAFF000EDE6E000EDD6E20EE04F0EA
:1000A8001F50D9262050DA22010EDBBE18D0010ECF
:1000B800DB5004E1180EDE5CD8A011D01DC0D9FFBA
:1000C8001EC0DAFFDE2A000EDD2220EE04F01F50EB
:1000D800D9262050DA22000EDE6E000EDD6E1DC01D
:1000E800D9FF1EC0DAFF10EE02F01D50E1261E50A7
:1000F800E222E6CF23F0E5CF24F0D8902336243649
:10010800FF0E2324E16EFF0E2420E26EDE50E65C33
:10011800E650800A276EDE50800A2758D8B011D0E2
:1001280020EE02F01D50D9261E50DA22DE2A000EDB
:10013800DD221DC0D9FF1EC0DAFF010EDE6E000EE3
:10014800DD6E20EE02F01D50D9261E50DA22010E77
:10015800DBBE1200010EDB5004E10D0EDE5CD8A000
:10016800120020EE04F01D50D9261E50DA22DE2A95
:10017800000EDD2220EE02F01D50D9261E50DA2294
:10018800010EDE6E000EDD6E20EE04F01D50D92645
:100198001E50DA22DECF19F0DDCF1AF04DEC01F057
:1001A80012000600E1CF29F0E2CF2AF0D9CF2BF0D8
:1001B800DACF2CF0F2A407D0090ED76EE70ED66E70
:1001C800F2942D4A2E2A2EBE21D02E5004E10A0E7A
:1001D8002D5CD8A01BD0350E1D6E000E1E6E2F0E86
:1001E8001F6E000E206E09EC00F083A003D0286A71
:1001F800282A01D0286A010E282683502818FE0BC9
:100208002818836E000E2E6E000E2D6E2CC0DAFF9D
:100218002BC0D9FF2AC0E2FF29C0E1FF3B921100A1
:10022800070E3A6EE30E396E000E386E010E376E09
:10023800000E366E010E356E9590D58EF28AF294C8
:10024800D59CD596D580D592D584D59A090ED76EEA
:10025800E70ED66ED58EF28EF28CFFD7C20EF66EF2
:10026800020EF76E000EF86E00EE01F010EE18F0B8
:100278000900F5CFEEFFE550E150FAE100EE2DF070
:100288000E0EEE6AE806FDE13B903B92000114EF8A
:1002980001F0030E19141B6E000E1A141C6E1B506D
:1002A8001C10D8A405D0000E046E1D0E036E12009B
:1002B800000E046E1C0E036E12001F001C001F00AF
:1002C8001E001F001E001F001F001E001F001E0032
:0202D8001F0005
:020000040020DA
:08000000FFFFFFFFFFFFFFFF00
:020000040030CA
:0E00000000051F1FFF8385FF0FC00FE00F409C
:00000001FF
