:0400000007EF00F016
:1000080055822BED06F0FCEF07F0190E4524D96E4A
:10001800000E4620DA6EDF50806E45504610D8A498
:1000280018EF00F01AEF00F08BEF00F0838620EE57
:1000380002F03150D9263250DA22DECF23F0DDCF5C
:1000480024F0000E266E0A0E256E9EEC06F0190EA0
:100058002324D96E000E2420DA6EDF50816E050E3F
:10006800366E910E356ED00EE82EFED7352EFCD7A3
:10007800362EFAD7838420EE02F03150D92632503A
:10008800DA22DECF29F0DDCF2AF0000E2C6E0A0E20
:100098002B6EB5EC05F029C035F02AC036F0000EFD
:1000A800266E0A0E256E20EE02F03150D926325007
:1000B800DA22DECF23F0DDCF24F09EEC06F023C059
:1000C80029F024C02AF0000E2C6E0A0E2B6EB5EC17
:1000D80005F0291E2A1E294A2A2A295035262A507F
:1000E8003622190E3524D96E000E3620DA6EDF500E
:1000F800816E050E366E910E356ED00EE82EFED747
:10010800352EFCD7362EFAD783948BEF00F04504B2
:100118004610D8A492EF00F094EF00F000EF01F041
:10012800838631C0D9FF32C0DAFFDECF23F0DDCFBE
:1001380024F0000E266E0A0E256E9EEC06F0190EAF
:100148002324D96E000E2420DA6EDF50816E050E4E
:10015800366E910E356ED00EE82EFED7352EFCD7B2
:10016800362EFAD78396838431C0D9FF32C0DAFF9E
:10017800DECF29F0DDCF2AF0000E2C6E0A0E2B6E92
:10018800B5EC05F029C035F02AC036F0000E266E11
:100198000A0E256E31C0D9FF32C0DAFFDECF23F058
:1001A800DDCF24F09EEC06F023C029F024C02AF00D
:1001B800000E2C6E0A0E2B6EB5EC05F0291E2A1EB9
:1001C800294A2A2A295035262A503622190E35243A
:1001D800D96E000E3620DA6EDF50816E050E366E4F
:1001E800910E356ED00EE82EFED7352EFCD7362E62
:1001F800FAD7839400EF01F0020E45184610D8A4F0
:1002080008EF01F00AEF01F07CEF01F0838620EEA1
:1002180004F03150D9263250DA22DECF23F0DDCF78
:1002280024F0000E266E0A0E256E9EEC06F0190EBE
:100238002324D96E000E2420DA6EDF50816E050E5D
:10024800366E910E356ED00EE82EFED7352EFCD7C1
:10025800362EFAD78396838420EE04F03150D926BF
:100268003250DA22DECF29F0DDCF2AF0000E2C6ED4
:100278000A0E2B6EB5EC05F029C035F02AC036F011
:10028800000E266E0A0E256E20EE04F03150D92697
:100298003250DA22DECF23F0DDCF24F09EEC06F0D8
:1002A80023C029F024C02AF0000E2C6E0A0E2B6EF3
:1002B800B5EC05F0291E2A1E294A2A2A2950352676
:1002C8002A503622190E3524D96E000E3620DA6EE1
:1002D800DF50816E050E366E910E356ED00EE82E0B
:1002E800FED7352EFCD7362EFAD783947CEF01F053
:1002F800030E45184610D8A484EF01F086EF01F0EC
:10030800F2EF01F0838633C0D9FF34C0DAFFDECFC5
:1003180023F0DDCF24F0000E266E0A0E256E9EEC2B
:1003280006F0190E2324D96E000E2420DA6EDF5051
:10033800816E050E366E910E356ED00EE82EFED704
:10034800352EFCD7362EFAD78396838433C0D9FF4F
:1003580034C0DAFFDECF29F0DDCF2AF0000E2C6E94
:100368000A0E2B6EB5EC05F029C035F02AC036F020
:10037800000E266E0A0E256E33C0D9FF34C0DAFF90
:10038800DECF23F0DDCF24F09EEC06F023C029F069
:1003980024C02AF0000E2C6E0A0E2B6EB5EC05F068
:1003A800291E2A1E294A2A2A295035262A50362249
:1003B800190E3524D96E000E3620DA6EDF50816EA4
:1003C800050E366E910E356ED00EE82EFED7352E00
:1003D800FCD7362EFAD78394F2EF01F0040E4518B5
:1003E8004610D8A4FAEF01F0FCEF01F06EEF02F02E
:1003F800838620EE02F03350D9263450DA22DECF3D
:1004080023F0DDCF24F0000E266E0A0E256E9EEC3A
:1004180006F0190E2324D96E000E2420DA6EDF5060
:10042800816E050E366E910E356ED00EE82EFED713
:10043800352EFCD7362EFAD78396838420EE02F029
:100448003350D9263450DA22DECF29F0DDCF2AF016
:10045800000E2C6E0A0E2B6EB5EC05F029C035F097
:100468002AC036F0000E266E0A0E256E20EE02F027
:100478003350D9263450DA22DECF23F0DDCF24F0F2
:100488009EEC06F023C029F024C02AF0000E2C6E42
:100498000A0E2B6EB5EC05F0291E2A1E294A2A2AB7
:1004A800295035262A503622190E3524D96E000EC9
:1004B8003620DA6EDF50816E050E366E910E356E7F
:1004C800D00EE82EFED7352EFCD7362EFAD78394D9
:1004D8006EEF02F0050E45184610D8A476EF02F02C
:1004E80078EF02F0EAEF02F0838620EE04F0335052
:1004F800D9263450DA22DECF23F0DDCF24F0000EE7
:10050800266E0A0E256E9EEC06F0190E2324D96E6F
:10051800000E2420DA6EDF50816E050E366E910EC5
:10052800356ED00EE82EFED7352EFCD7362EFAD7EC
:100538008396838420EE04F03350D9263450DA228F
:10054800DECF29F0DDCF2AF0000E2C6E0A0E2B6EBE
:10055800B5EC05F029C035F02AC036F0000E266E3D
:100568000A0E256E20EE04F03350D9263450DA22D4
:10057800DECF23F0DDCF24F09EEC06F023C029F077
:1005880024C02AF0000E2C6E0A0E2B6EB5EC05F076
:10059800291E2A1E294A2A2A295035262A50362257
:1005A800190E3524D96E000E3620DA6EDF50816EB2
:1005B800050E366E910E356ED00EE82EFED7352E0E
:1005C800FCD7362EFAD78394EAEF02F0120083A004
:1005D800F0EF02F0F2EF02F00FEF03F0050E00016A
:1005E800656F910E0001646FCF0EE82EFED7642F61
:1005F800FCD7652FFAD700D0454A462A04EF03F006
:1006080083B009EF03F00BEF03F004EF03F00FEFF3
:1006180003F00FEF03F046BE1BEF03F0465009E16D
:10062800060E455CD8A01BEF03F01DEF03F023EF87
:1006380003F0000E466E000E456E23EF03F083A212
:1006480028EF03F02AEF03F016EF04F0050E00017F
:10065800656F910E0001646FCF0EE82EFED7642FF0
:10066800FCD7652FFAD700D045504610D8A43FEFE5
:1006780003F041EF03F06BEF03F0000120EE02F00E
:100688006051D9266151DA22DE2A000EDD220001EE
:1006980020EE02F06051D9266151DA223C0EDE18B4
:1006A800DE10D8A45AEF03F05CEF03F06BEF03F011
:1006B800000120EE02F06051D9266151DA22000EC5
:1006C800DE6E000EDD6E6BEF03F06BEF03F045049A
:1006D8004610D8A472EF03F074EF03F095EF03F01F
:1006E80060C0D9FF61C0DAFFDE2A000EDD2260C0DB
:1006F800D9FF61C0DAFF3C0EDE18DE10D8A487EF00
:1007080003F089EF03F095EF03F060C0D9FF61C0F3
:10071800DAFF000EDE6E000EDD6E95EF03F095EF4A
:1007280003F0020E45184610D8A49DEF03F09FEF82
:1007380003F0ADEF03F0000120EE04F06051D9267C
:100748006151DA22DE2A000EDD22ADEF03F0ADEFB3
:1007580003F0030E45184610D8A4B5EF03F0B7EF21
:1007680003F0C0EF03F062C0D9FF63C0DAFFDE2AEE
:10077800000EDD22C0EF03F0040E45184610D8A481
:10078800C8EF03F0CAEF03F0FEEF03F0000120EE1C
:1007980002F06251D9266351DA22DE2A000EDD22E8
:1007A800000120EE02F06251D9266351DA220D0EC3
:1007B800DE18DE10D8A4E3EF03F0E5EF03F0FEEF58
:1007C80003F0000120EE02F06251D9266351DA22CB
:1007D800010EDE6E000EDD6E000120EE04F06251A7
:1007E800D9266351DA22DE2A000EDD22FEEF03F05D
:1007F800FEEF03F0050E45184610D8A406EF04F0E6
:1008080008EF04F016EF04F0000120EE04F0625146
:10081800D9266351DA22DE2A000EDD2216EF04F013
:1008280016EF04F0120020EE02F02950D9262A50C3
:10083800DA22DE2A000EDD2220EE02F02950D92627
:100848002A50DA22010EDBBE34EF04F0010EDB5031
:1008580009E13C0EDE5CD8A034EF04F036EF04F07A
:1008680011EF05F029C0D9FF2AC0DAFFDE2A000EF1
:10087800DD2220EE02F02950D9262A50DA22000E75
:10088800DE6E000EDD6E29C0D9FF2AC0DAFF010E28
:10089800DBBE59EF04F0010EDB5009E13C0EDE5CD3
:1008A800D8A059EF04F05BEF04F011EF05F020EE4B
:1008B80004F02950D9262A50DA22DE2A000EDD2239
:1008C80029C0D9FF2AC0DAFF000EDE6E000EDD6EE9
:1008D80020EE04F02950D9262A50DA22010EDBBE78
:1008E80080EF04F0010EDB5009E1180EDE5CD8A0A1
:1008F80080EF04F082EF04F011EF05F027C0D9FF74
:1009080028C0DAFFDE2A000EDD2220EE04F029508E
:10091800D9262A50DA22000EDE6E000EDD6E27C0C0
:10092800D9FF28C0DAFFFE0E2D6EFF0E2E6E10EED8
:1009380002F02750E1262850E222E6CF2FF0E5CF3B
:1009480030F0D8902F3630362D502F262E503022AA
:10095800010E2F24E16E000E3020E26EDE50E65CC0
:10096800E650800A336EDE50800A3358D8B0BFEFA5
:1009780004F0C1EF04F011EF05F020EE02F027506B
:10098800D9262850DA22DE2A000EDD2227C0D9FF18
:1009980028C0DAFF010EDE6E000EDD6E20EE02F0DA
:1009A8002750D9262850DA22010EDBBEE6EF04F0E4
:1009B800010EDB5009E10D0EDE5CD8A0E6EF04F075
:1009C800E8EF04F011EF05F020EE04F02750D926E7
:1009D8002850DA22DE2A000EDD2220EE02F027500F
:1009E800D9262850DA22010EDE6E000EDD6E20EECA
:1009F80004F02750D9262850DA22DECF23F0DDCFA5
:100A080024F0E0EC07F011EF05F011EF05F011EF1D
:100A180005F011EF05F011EF05F012000001656F08
:100A2800F00E8116F00E9316939C939A93988A9CD5
:100A38008A9A8A986EEC08F0300EBCEC07F0050E26
:100A480031EC08F0300EBCEC07F0010E31EC08F088
:100A5800320EBCEC07F033EF05F033EF05F091EC04
:100A680007F00009D8A43BEF05F03DEF05F033EFA0
:100A780005F043EF05F043EF05F043EF05F091EC87
:100A880007F00009D8A44BEF05F04DEF05F043EF50
:100A980005F04FEF05F000016551BCEC07F057EF8A
:100AA80005F057EF05F091EC07F00009D8A45FEFC7
:100AB80005F061EF05F057EF05F063EF05F0080E5C
:100AC800BCEC07F06AEF05F06AEF05F091EC07F06F
:100AD8000009D8A472EF05F074EF05F06AEF05F08D
:100AE80076EF05F00F0EBCEC07F07DEF05F07DEF1B
:100AF80005F091EC07F00009D8A485EF05F087EF21
:100B080005F07DEF05F089EF05F0010EBCEC07F06C
:100B180090EF05F090EF05F091EC07F00009D8A4EC
:100B280098EF05F09AEF05F090EF05F09CEF05F0CF
:100B3800040EBCEC07F0A3EF05F0A3EF05F091EC71
:100B480007F00009D8A4ABEF05F0ADEF05F0A3EF6F
:100B580005F0AFEF05F0800E5CEC07F0B4EF05F0A0
:100B68001200000E2E6E2CBEBEEF05F0BCEF05F095
:100B7800C6EF05F02B6C2C1ED8B02C2A010E2E6E59
:100B8800C6EF05F02ABECDEF05F0CBEF05F0D5EFA7
:100B980005F0296C2A1ED8B02A2A010E2E1AD5EF84
:100BA80005F0000E306E000E2F6E2B502C10D8B4AE
:100BB800E0EF05F0E2EF05F016EF06F0010E2D6EFE
:100BC800ECEF05F0D8902B362C362D2AECEF05F0FB
:100BD8002CAEF1EF05F0F3EF05F0E6EF05F0F7EFD7
:100BE80005F0F7EF05F0D8902F3630362B50295CFA
:100BF8002C502A58D8A003EF06F005EF06F00CEFAA
:100C080006F02B50295E2C502A5A2F800CEF06F044
:100C1800D8902C322B322D2EF7EF05F016EF06F078
:100C280016EF06F02E50D8B41CEF06F01EEF06F0B3
:100C380024EF06F02F6C301ED8B0302A24EF06F0CF
:100C48002FC029F030C02AF02AEF06F01200060063
:100C5800FACF37F0FBCF38F0E9CF39F0EACF3AF0E6
:100C6800E1CF3BF0E2CF3CF0D9CF3DF0DACF3EF018
:100C7800F3CF3FF0F4CF40F0F6CF41F0F7CF42F09A
:100C8800F8CF43F0F5CF44F0F2A44DEF06F04FEF64
:100C980006F058EF06F0090ED76EE70ED66EF294FE
:100CA800474A482A58EF06F048BE64EF06F0485015
:100CB80009E1020E475CD8A064EF06F066EF06F083
:100CC80080EF06F04F0E276E000E286E490E296E33
:100CD800000E2A6E17EC04F0490E316E000E326ECB
:100CE8004F0E336E000E346E09EC00F0000E486EA5
:100CF800000E476E80EF06F044C0F5FF43C0F8FFD2
:100D080042C0F7FF41C0F6FF40C0F4FF3FC0F3FF09
:100D18003EC0DAFF3DC0D9FF3CC0E2FF3BC0E1FF67
:100D28003AC0EAFF39C0E9FF38C0FBFF37C0FAFF15
:100D380055921100000E286E24BEA7EF06F0A5EF0D
:100D480006F0AFEF06F0236C241ED8B0242A010E5B
:100D5800286EAFEF06F026BEB6EF06F0B4EF06F049
:100D6800BCEF06F0256C261ED8B0262ABCEF06F08C
:100D780025502610D8B4C3EF06F0C5EF06F0F5EFFE
:100D880006F0010E276ECFEF06F0D89025362636EE
:100D9800272ACFEF06F026AED4EF06F0D6EF06F0FE
:100DA800C9EF06F0DAEF06F0DAEF06F02550235C1B
:100DB80026502458D8A0E3EF06F0E5EF06F0EBEF55
:100DC80006F02550235E2650245AEBEF06F0D89003
:100DD80026322532272EDAEF06F0F5EF06F0F5EF8A
:100DE80006F02850D8B4FBEF06F0FDEF06F003EF4D
:100DF80007F0236C241ED8B0242A03EF07F023C081
:100E080023F024C024F009EF07F01200000E546EFE
:100E1800130E536E000E526E010E516E000E506E80
:100E2800010E4F6E000E4E6E000E4D6E000E4A6E95
:100E3800000E496E000E4C6E000E4B6ED58EF28A77
:100E4800F294D59CD596D580D592D584D59A090E9D
:100E5800D76EE70ED66ED58E000EC16E000E936E5D
:100E6800000E946E000E926E929C949094929494BC
:100E7800949C949E9580958295949596F28EF28C8A
:100E880017EC08F048EF07F0490E0001606F000EFC
:100E98000001616F4F0E0001626F000E0001636F69
:100EA800EBEC02F048EF07F048EF07F007EF00F02F
:100EB8000001646FF00E9316F00E81160001645164
:100EC8000001616F626B0001618F040E0001636FA6
:100ED80000016235623361330001632F6CEF07F064
:100EE800000161510F0B81128A9C8A9A74EC08F0F8
:100EF8008A8874EC08F08A98F00E81160001645113
:100F08000F0B811274EC08F08A8874EC08F08A9848
:100F18000F0E931290EF07F012008A8C8A9A74ECE5
:100F280008F08A8874EC08F081A69DEF07F09FEF1F
:100F380007F0AEEF07F08A9874EC08F08A8874EC32
:100F480008F08A988A9C010EBBEF07F0BBEF07F008
:100F5800BBEF07F08A9874EC08F08A8874EC08F004
:100F68008A988A9C000EBBEF07F0BBEF07F01200CF
:100F78000001616FF00E9316F00E811600016139C1
:100F88000F0B0F0B81128A9C8A9A74EC08F08A88DE
:100F980074EC08F08A98F00E8116000161510F0B6D
:100FA800811274EC08F08A8874EC08F08A980F0EA5
:100FB8009312DFEF07F01200030E2314256E000EC4
:100FC8002414266E25502610D8A4EDEF07F0EFEF75
:100FD80007F0F5EF07F0000E046E1D0E036EFBEF31
:100FE80007F0000E046E1C0E036EFBEF07F01200F4
:100FF800860EF66E100EF76E000EF86E00EE01F01B
:1010080010EE22F00900F5CFEEFFE550E150FAE1CD
:1010180000EE45F0100EEE6AE806FDE15590559297
:1010280000010AEF07F0280E12EC05F01EEF08F099
:101038001EEF08F091EC07F00009D8A426EF08F09D
:1010480028EF08F01EEF08F02AEF08F0060EBCECB7
:1010580007F00C0EBCEC07F012000001616F0D0EDA
:101068000001606FFB0EE82EFED7602FFCD700D082
:101078000001612F33EF08F042EF08F012001F0063
:101088001C001F001E001F001E001F001F001E0066
:101098001F001E001F003F065B4F666D7D077F6FB8
:1010A8000001606FC80E00D0E82EFDD70001602F48
:1010B80056EF08F060EF08F012000001606F030EB1
:1010C800E82EFED700F00001602F63EF08F06DEF07
:1010D80008F01200B40E54EC08F073EF08F0120098
:0810E800780E61EC08F0120023
:020000040020DA
:08000000FFFFFFFFFFFFFFFF00
:020000040030CA
:0E00000000051F1FFF8185FF0FC00FE00F409E
:00000001FF
