:020000040000FA
:04000000CBEF3FF013
:107F96000001CEEF3FF09590D58EF28AF294D59CF3
:107FA600D596D580D592D584D59A090ED76EE70E8B
:107FB600D66ED58E000E036E000E026EF2A407D0AA
:107FC600090ED76EE70ED66EF294024A032A03BE56
:107FD600F5D7035004E1060E025CD8A0EFD783A0C4
:107FE60003D0016A012A01D0016A010E01268350DD
:0A7FF6000118FE0B0118836EDDD7A1
:020000040020DA
:08000000FFFFFFFFFFFFFFFF00
:020000040030CA
:0E00000000051F1FFF8385FF0FC00FE00F409C
:00000001FF
